:1000000009C016C015C03EC013C012C011C010C038
:100010000FC05BC011241FBECFE9CDBF10E0A0E62A
:10002000B0E001C01D92A336B107E1F762D075C000
:10003000E7CF81E087B98FE886B9089589B78260F4
:1000400089BF85E083BF0895809160009091610031
:1000500021E08C3C920728F48D5A914020F081E0F9
:1000600003C018BA02C082E088BB809162008B3F57
:1000700018F0369A10926200809162008F5F809330
:10008000620008951F920F920FB60F9211242F93C2
:100090003F934F935F936F937F938F939F93AF9310
:1000A000BF93EF93FF93D0DFFF91EF91BF91AF919B
:1000B0009F918F917F916F915F914F913F912F9180
:1000C0000F900FBE0F901F9018951F920F920FB6B2
:1000D0000F9211248F939F9384B195B190936100F7
:1000E000809360009F918F910F900FBE0F901F9093
:1000F000189583E087BB18BA81E087B98FE886B985
:1001000089B7826089BF85E083BF84EF91E09093D7
:0E0110006100809360007894FFCFF894FFCFD9
:00000001FF
